{
  "_format": "hh-sol-artifact-1",
  "contractName": "HSeeds",
  "sourceName": "contracts/HSeeds.sol",
  "abi": [
    {
      "inputs": [],
      "stateMutability": "nonpayable",
      "type": "constructor"
    },
    {
      "anonymous": false,
      "inputs": [
        {
          "indexed": true,
          "internalType": "address",
          "name": "owner",
          "type": "address"
        },
        {
          "indexed": true,
          "internalType": "address",
          "name": "approved",
          "type": "address"
        },
        {
          "indexed": true,
          "internalType": "uint256",
          "name": "tokenId",
          "type": "uint256"
        }
      ],
      "name": "Approval",
      "type": "event"
    },
    {
      "anonymous": false,
      "inputs": [
        {
          "indexed": true,
          "internalType": "address",
          "name": "owner",
          "type": "address"
        },
        {
          "indexed": true,
          "internalType": "address",
          "name": "operator",
          "type": "address"
        },
        {
          "indexed": false,
          "internalType": "bool",
          "name": "approved",
          "type": "bool"
        }
      ],
      "name": "ApprovalForAll",
      "type": "event"
    },
    {
      "anonymous": false,
      "inputs": [
        {
          "indexed": true,
          "internalType": "address",
          "name": "previousOwner",
          "type": "address"
        },
        {
          "indexed": true,
          "internalType": "address",
          "name": "newOwner",
          "type": "address"
        }
      ],
      "name": "OwnershipTransferred",
      "type": "event"
    },
    {
      "anonymous": false,
      "inputs": [
        {
          "indexed": true,
          "internalType": "address",
          "name": "from",
          "type": "address"
        },
        {
          "indexed": true,
          "internalType": "address",
          "name": "to",
          "type": "address"
        },
        {
          "indexed": true,
          "internalType": "uint256",
          "name": "tokenId",
          "type": "uint256"
        }
      ],
      "name": "Transfer",
      "type": "event"
    },
    {
      "inputs": [],
      "name": "ENTROPYSEEDS_PROVENANCE",
      "outputs": [
        {
          "internalType": "string",
          "name": "",
          "type": "string"
        }
      ],
      "stateMutability": "view",
      "type": "function"
    },
    {
      "inputs": [],
      "name": "MAX_NFT_SUPPLY",
      "outputs": [
        {
          "internalType": "uint256",
          "name": "",
          "type": "uint256"
        }
      ],
      "stateMutability": "view",
      "type": "function"
    },
    {
      "inputs": [],
      "name": "REVEAL_TIMESTAMP",
      "outputs": [
        {
          "internalType": "uint256",
          "name": "",
          "type": "uint256"
        }
      ],
      "stateMutability": "view",
      "type": "function"
    },
    {
      "inputs": [],
      "name": "SALE_START_TIMESTAMP",
      "outputs": [
        {
          "internalType": "uint256",
          "name": "",
          "type": "uint256"
        }
      ],
      "stateMutability": "view",
      "type": "function"
    },
    {
      "inputs": [
        {
          "internalType": "address",
          "name": "to",
          "type": "address"
        },
        {
          "internalType": "uint256",
          "name": "tokenId",
          "type": "uint256"
        }
      ],
      "name": "approve",
      "outputs": [],
      "stateMutability": "nonpayable",
      "type": "function"
    },
    {
      "inputs": [
        {
          "internalType": "address",
          "name": "owner",
          "type": "address"
        }
      ],
      "name": "balanceOf",
      "outputs": [
        {
          "internalType": "uint256",
          "name": "",
          "type": "uint256"
        }
      ],
      "stateMutability": "view",
      "type": "function"
    },
    {
      "inputs": [],
      "name": "finalizeStartingIndex",
      "outputs": [],
      "stateMutability": "nonpayable",
      "type": "function"
    },
    {
      "inputs": [
        {
          "internalType": "uint256",
          "name": "tokenId",
          "type": "uint256"
        }
      ],
      "name": "getApproved",
      "outputs": [
        {
          "internalType": "address",
          "name": "",
          "type": "address"
        }
      ],
      "stateMutability": "view",
      "type": "function"
    },
    {
      "inputs": [],
      "name": "getNFTPrice",
      "outputs": [
        {
          "internalType": "uint256",
          "name": "",
          "type": "uint256"
        }
      ],
      "stateMutability": "view",
      "type": "function"
    },
    {
      "inputs": [
        {
          "internalType": "address",
          "name": "owner",
          "type": "address"
        },
        {
          "internalType": "address",
          "name": "operator",
          "type": "address"
        }
      ],
      "name": "isApprovedForAll",
      "outputs": [
        {
          "internalType": "bool",
          "name": "",
          "type": "bool"
        }
      ],
      "stateMutability": "view",
      "type": "function"
    },
    {
      "inputs": [
        {
          "internalType": "uint256",
          "name": "index",
          "type": "uint256"
        }
      ],
      "name": "isMintedBeforeReveal",
      "outputs": [
        {
          "internalType": "bool",
          "name": "",
          "type": "bool"
        }
      ],
      "stateMutability": "view",
      "type": "function"
    },
    {
      "inputs": [
        {
          "internalType": "uint256",
          "name": "numberOfNfts",
          "type": "uint256"
        }
      ],
      "name": "mintNFT",
      "outputs": [],
      "stateMutability": "payable",
      "type": "function"
    },
    {
      "inputs": [],
      "name": "name",
      "outputs": [
        {
          "internalType": "string",
          "name": "",
          "type": "string"
        }
      ],
      "stateMutability": "view",
      "type": "function"
    },
    {
      "inputs": [],
      "name": "owner",
      "outputs": [
        {
          "internalType": "address",
          "name": "",
          "type": "address"
        }
      ],
      "stateMutability": "view",
      "type": "function"
    },
    {
      "inputs": [
        {
          "internalType": "uint256",
          "name": "tokenId",
          "type": "uint256"
        }
      ],
      "name": "ownerOf",
      "outputs": [
        {
          "internalType": "address",
          "name": "",
          "type": "address"
        }
      ],
      "stateMutability": "view",
      "type": "function"
    },
    {
      "inputs": [],
      "name": "renounceOwnership",
      "outputs": [],
      "stateMutability": "nonpayable",
      "type": "function"
    },
    {
      "inputs": [
        {
          "internalType": "address",
          "name": "from",
          "type": "address"
        },
        {
          "internalType": "address",
          "name": "to",
          "type": "address"
        },
        {
          "internalType": "uint256",
          "name": "tokenId",
          "type": "uint256"
        }
      ],
      "name": "safeTransferFrom",
      "outputs": [],
      "stateMutability": "nonpayable",
      "type": "function"
    },
    {
      "inputs": [
        {
          "internalType": "address",
          "name": "from",
          "type": "address"
        },
        {
          "internalType": "address",
          "name": "to",
          "type": "address"
        },
        {
          "internalType": "uint256",
          "name": "tokenId",
          "type": "uint256"
        },
        {
          "internalType": "bytes",
          "name": "_data",
          "type": "bytes"
        }
      ],
      "name": "safeTransferFrom",
      "outputs": [],
      "stateMutability": "nonpayable",
      "type": "function"
    },
    {
      "inputs": [
        {
          "internalType": "address",
          "name": "operator",
          "type": "address"
        },
        {
          "internalType": "bool",
          "name": "approved",
          "type": "bool"
        }
      ],
      "name": "setApprovalForAll",
      "outputs": [],
      "stateMutability": "nonpayable",
      "type": "function"
    },
    {
      "inputs": [],
      "name": "startingIndex",
      "outputs": [
        {
          "internalType": "uint256",
          "name": "",
          "type": "uint256"
        }
      ],
      "stateMutability": "view",
      "type": "function"
    },
    {
      "inputs": [],
      "name": "startingIndexBlock",
      "outputs": [
        {
          "internalType": "uint256",
          "name": "",
          "type": "uint256"
        }
      ],
      "stateMutability": "view",
      "type": "function"
    },
    {
      "inputs": [
        {
          "internalType": "bytes4",
          "name": "interfaceId",
          "type": "bytes4"
        }
      ],
      "name": "supportsInterface",
      "outputs": [
        {
          "internalType": "bool",
          "name": "",
          "type": "bool"
        }
      ],
      "stateMutability": "view",
      "type": "function"
    },
    {
      "inputs": [],
      "name": "symbol",
      "outputs": [
        {
          "internalType": "string",
          "name": "",
          "type": "string"
        }
      ],
      "stateMutability": "view",
      "type": "function"
    },
    {
      "inputs": [
        {
          "internalType": "uint256",
          "name": "index",
          "type": "uint256"
        }
      ],
      "name": "tokenByIndex",
      "outputs": [
        {
          "internalType": "uint256",
          "name": "",
          "type": "uint256"
        }
      ],
      "stateMutability": "view",
      "type": "function"
    },
    {
      "inputs": [
        {
          "internalType": "address",
          "name": "owner",
          "type": "address"
        },
        {
          "internalType": "uint256",
          "name": "index",
          "type": "uint256"
        }
      ],
      "name": "tokenOfOwnerByIndex",
      "outputs": [
        {
          "internalType": "uint256",
          "name": "",
          "type": "uint256"
        }
      ],
      "stateMutability": "view",
      "type": "function"
    },
    {
      "inputs": [
        {
          "internalType": "uint256",
          "name": "tokenId",
          "type": "uint256"
        }
      ],
      "name": "tokenURI",
      "outputs": [
        {
          "internalType": "string",
          "name": "",
          "type": "string"
        }
      ],
      "stateMutability": "view",
      "type": "function"
    },
    {
      "inputs": [],
      "name": "totalSupply",
      "outputs": [
        {
          "internalType": "uint256",
          "name": "",
          "type": "uint256"
        }
      ],
      "stateMutability": "view",
      "type": "function"
    },
    {
      "inputs": [
        {
          "internalType": "address",
          "name": "from",
          "type": "address"
        },
        {
          "internalType": "address",
          "name": "to",
          "type": "address"
        },
        {
          "internalType": "uint256",
          "name": "tokenId",
          "type": "uint256"
        }
      ],
      "name": "transferFrom",
      "outputs": [],
      "stateMutability": "nonpayable",
      "type": "function"
    },
    {
      "inputs": [
        {
          "internalType": "address",
          "name": "newOwner",
          "type": "address"
        }
      ],
      "name": "transferOwnership",
      "outputs": [],
      "stateMutability": "nonpayable",
      "type": "function"
    },
    {
      "inputs": [],
      "name": "withdraw",
      "outputs": [],
      "stateMutability": "nonpayable",
      "type": "function"
    }
  ],
  "bytecode": "0x60806040523480156200001157600080fd5b506040518060400160405280600c81526020017f456e74726f7079536565647300000000000000000000000000000000000000008152506040518060400160405280600481526020017f485345440000000000000000000000000000000000000000000000000000000081525081600090805190602001906200009692919062000179565b508060019080519060200190620000af92919062000179565b5050506000620000c46200017160201b60201c565b905080600a60006101000a81548173ffffffffffffffffffffffffffffffffffffffff021916908373ffffffffffffffffffffffffffffffffffffffff1602179055508073ffffffffffffffffffffffffffffffffffffffff16600073ffffffffffffffffffffffffffffffffffffffff167f8be0079c531659141344cd1fd0a4f28419497f9722a3daafe3b4186f6b6457e060405160405180910390a3506001600b819055506200028e565b600033905090565b828054620001879062000229565b90600052602060002090601f016020900481019282620001ab5760008555620001f7565b82601f10620001c657805160ff1916838001178555620001f7565b82800160010185558215620001f7579182015b82811115620001f6578251825591602001919060010190620001d9565b5b5090506200020691906200020a565b5090565b5b80821115620002255760008160009055506001016200020b565b5090565b600060028204905060018216806200024257607f821691505b602082108114156200025957620002586200025f565b5b50919050565b7f4e487b7100000000000000000000000000000000000000000000000000000000600052602260045260246000fd5b613ff5806200029e6000396000f3fe6080604052600436106101cd5760003560e01c80638da5cb5b116100f7578063bc28d70211610095578063e36d649811610064578063e36d64981461066b578063e985e9c514610696578063f2fde38b146106d3578063fb107a4f146106fc576101cd565b8063bc28d7021461059b578063c87b56dd146105d8578063cb774d4714610615578063e322ef4c14610640576101cd565b806395d89b41116100d157806395d89b41146104f3578063a22cb4651461051e578063b5077f4414610547578063b88d4fde14610572576101cd565b80638da5cb5b1461048157806392642744146104ac578063946807fd146104c8576101cd565b80632f745c591161016f5780636352211e1161013e5780636352211e146103d957806370a0823114610416578063715018a61461045357806374df39c91461046a576101cd565b80632f745c591461031f5780633ccfd60b1461035c57806342842e0e146103735780634f6ccce71461039c576101cd565b8063095ea7b3116101ab578063095ea7b31461027757806318160ddd146102a057806318e20a38146102cb57806323b872dd146102f6576101cd565b806301ffc9a7146101d257806306fdde031461020f578063081812fc1461023a575b600080fd5b3480156101de57600080fd5b506101f960048036038101906101f49190612cb3565b610727565b6040516102069190613783565b60405180910390f35b34801561021b57600080fd5b506102246107a1565b604051610231919061379e565b60405180910390f35b34801561024657600080fd5b50610261600480360381019061025c9190612d05565b610833565b60405161026e919061371c565b60405180910390f35b34801561028357600080fd5b5061029e60048036038101906102999190612c77565b6108b8565b005b3480156102ac57600080fd5b506102b56109d0565b6040516102c29190613b20565b60405180910390f35b3480156102d757600080fd5b506102e06109dd565b6040516102ed9190613b20565b60405180910390f35b34801561030257600080fd5b5061031d60048036038101906103189190612b71565b6109f3565b005b34801561032b57600080fd5b5061034660048036038101906103419190612c77565b610a53565b6040516103539190613b20565b60405180910390f35b34801561036857600080fd5b50610371610af8565b005b34801561037f57600080fd5b5061039a60048036038101906103959190612b71565b610bc3565b005b3480156103a857600080fd5b506103c360048036038101906103be9190612d05565b610be3565b6040516103d09190613b20565b60405180910390f35b3480156103e557600080fd5b5061040060048036038101906103fb9190612d05565b610c7a565b60405161040d919061371c565b60405180910390f35b34801561042257600080fd5b5061043d60048036038101906104389190612b0c565b610d2c565b60405161044a9190613b20565b60405180910390f35b34801561045f57600080fd5b50610468610de4565b005b34801561047657600080fd5b5061047f610f21565b005b34801561048d57600080fd5b5061049661101c565b6040516104a3919061371c565b60405180910390f35b6104c660048036038101906104c19190612d05565b611046565b005b3480156104d457600080fd5b506104dd6112dd565b6040516104ea9190613b20565b60405180910390f35b3480156104ff57600080fd5b506105086112e5565b604051610515919061379e565b60405180910390f35b34801561052a57600080fd5b5061054560048036038101906105409190612c3b565b611377565b005b34801561055357600080fd5b5061055c6114f8565b6040516105699190613b20565b60405180910390f35b34801561057e57600080fd5b5061059960048036038101906105949190612bc0565b6114fe565b005b3480156105a757600080fd5b506105c260048036038101906105bd9190612d05565b611560565b6040516105cf9190613783565b60405180910390f35b3480156105e457600080fd5b506105ff60048036038101906105fa9190612d05565b61158a565b60405161060c919061379e565b60405180910390f35b34801561062157600080fd5b5061062a611631565b6040516106379190613b20565b60405180910390f35b34801561064c57600080fd5b50610655611637565b604051610662919061379e565b60405180910390f35b34801561067757600080fd5b50610680611653565b60405161068d9190613b20565b60405180910390f35b3480156106a257600080fd5b506106bd60048036038101906106b89190612b35565b611659565b6040516106ca9190613783565b60405180910390f35b3480156106df57600080fd5b506106fa60048036038101906106f59190612b0c565b6116ed565b005b34801561070857600080fd5b50610711611899565b60405161071e9190613b20565b60405180910390f35b60007f780e9d63000000000000000000000000000000000000000000000000000000007bffffffffffffffffffffffffffffffffffffffffffffffffffffffff1916827bffffffffffffffffffffffffffffffffffffffffffffffffffffffff1916148061079a5750610799826119e6565b5b9050919050565b6060600080546107b090613daa565b80601f01602080910402602001604051908101604052809291908181526020018280546107dc90613daa565b80156108295780601f106107fe57610100808354040283529160200191610829565b820191906000526020600020905b81548152906001019060200180831161080c57829003601f168201915b5050505050905090565b600061083e82611ac8565b61087d576040517f08c379a000000000000000000000000000000000000000000000000000000000815260040161087490613980565b60405180910390fd5b6004600083815260200190815260200160002060009054906101000a900473ffffffffffffffffffffffffffffffffffffffff169050919050565b60006108c382610c7a565b90508073ffffffffffffffffffffffffffffffffffffffff168373ffffffffffffffffffffffffffffffffffffffff161415610934576040517f08c379a000000000000000000000000000000000000000000000000000000000815260040161092b90613a00565b60405180910390fd5b8073ffffffffffffffffffffffffffffffffffffffff16610953611b34565b73ffffffffffffffffffffffffffffffffffffffff16148061098257506109818161097c611b34565b611659565b5b6109c1576040517f08c379a00000000000000000000000000000000000000000000000000000000081526004016109b890613900565b60405180910390fd5b6109cb8383611b3c565b505050565b6000600880549050905090565b621baf8063604a30706109f09190613bdf565b81565b610a046109fe611b34565b82611bf5565b610a43576040517f08c379a0000000000000000000000000000000000000000000000000000000008152600401610a3a90613a80565b60405180910390fd5b610a4e838383611cd3565b505050565b6000610a5e83610d2c565b8210610a9f576040517f08c379a0000000000000000000000000000000000000000000000000000000008152600401610a96906137c0565b60405180910390fd5b600660008473ffffffffffffffffffffffffffffffffffffffff1673ffffffffffffffffffffffffffffffffffffffff168152602001908152602001600020600083815260200190815260200160002054905092915050565b610b00611b34565b73ffffffffffffffffffffffffffffffffffffffff16610b1e61101c565b73ffffffffffffffffffffffffffffffffffffffff1614610b74576040517f08c379a0000000000000000000000000000000000000000000000000000000008152600401610b6b906139a0565b60405180910390fd5b60004790503373ffffffffffffffffffffffffffffffffffffffff166108fc829081150290604051600060405180830381858888f19350505050158015610bbf573d6000803e3d6000fd5b5050565b610bde838383604051806020016040528060008152506114fe565b505050565b6000610bed6109d0565b8210610c2e576040517f08c379a0000000000000000000000000000000000000000000000000000000008152600401610c2590613ac0565b60405180910390fd5b60088281548110610c68577f4e487b7100000000000000000000000000000000000000000000000000000000600052603260045260246000fd5b90600052602060002001549050919050565b6000806002600084815260200190815260200160002060009054906101000a900473ffffffffffffffffffffffffffffffffffffffff169050600073ffffffffffffffffffffffffffffffffffffffff168173ffffffffffffffffffffffffffffffffffffffff161415610d23576040517f08c379a0000000000000000000000000000000000000000000000000000000008152600401610d1a90613940565b60405180910390fd5b80915050919050565b60008073ffffffffffffffffffffffffffffffffffffffff168273ffffffffffffffffffffffffffffffffffffffff161415610d9d576040517f08c379a0000000000000000000000000000000000000000000000000000000008152600401610d9490613920565b60405180910390fd5b600360008373ffffffffffffffffffffffffffffffffffffffff1673ffffffffffffffffffffffffffffffffffffffff168152602001908152602001600020549050919050565b610dec611b34565b73ffffffffffffffffffffffffffffffffffffffff16610e0a61101c565b73ffffffffffffffffffffffffffffffffffffffff1614610e60576040517f08c379a0000000000000000000000000000000000000000000000000000000008152600401610e57906139a0565b60405180910390fd5b600073ffffffffffffffffffffffffffffffffffffffff16600a60009054906101000a900473ffffffffffffffffffffffffffffffffffffffff1673ffffffffffffffffffffffffffffffffffffffff167f8be0079c531659141344cd1fd0a4f28419497f9722a3daafe3b4186f6b6457e060405160405180910390a36000600a60006101000a81548173ffffffffffffffffffffffffffffffffffffffff021916908373ffffffffffffffffffffffffffffffffffffffff160217905550565b6000600d5414610f66576040517f08c379a0000000000000000000000000000000000000000000000000000000008152600401610f5d906138e0565b60405180910390fd5b6000600c541415610fac576040517f08c379a0000000000000000000000000000000000000000000000000000000008152600401610fa390613a60565b60405180910390fd5b6000612053600c544060001c610fc29190613e25565b905060ff8143610fd29190613cc0565b1115610ff957612053600143610fe89190613cc0565b4060001c610ff69190613e25565b90505b60008114156110125760018161100f9190613bdf565b90505b80600d8190555050565b6000600a60009054906101000a900473ffffffffffffffffffffffffffffffffffffffff16905090565b6002600b54141561108c576040517f08c379a000000000000000000000000000000000000000000000000000000000815260040161108390613b00565b60405180910390fd5b6002600b8190555061205361109f6109d0565b106110df576040517f08c379a00000000000000000000000000000000000000000000000000000000081526004016110d690613a20565b60405180910390fd5b60008111611122576040517f08c379a000000000000000000000000000000000000000000000000000000000815260040161111990613a40565b60405180910390fd5b6005811115611166576040517f08c379a000000000000000000000000000000000000000000000000000000000815260040161115d90613aa0565b60405180910390fd5b612053816111726109d0565b61117c9190613bdf565b11156111bd576040517f08c379a00000000000000000000000000000000000000000000000000000000081526004016111b490613840565b60405180910390fd5b34816111c7611899565b6111d19190613c66565b14611211576040517f08c379a0000000000000000000000000000000000000000000000000000000008152600401611208906138a0565b60405180910390fd5b60005b8181101561128d5760006112266109d0565b9050621baf8063604a307061123b9190613bdf565b42101561126f576001600e600083815260200190815260200160002060006101000a81548160ff0219169083151502179055505b6112793382611f2f565b50808061128590613ddc565b915050611214565b506000600c541480156112c557506120536112a66109d0565b14806112c45750621baf8063604a30706112c09190613bdf565b4210155b5b156112d25743600c819055505b6001600b8190555050565b63604a307081565b6060600180546112f490613daa565b80601f016020809104026020016040519081016040528092919081815260200182805461132090613daa565b801561136d5780601f106113425761010080835404028352916020019161136d565b820191906000526020600020905b81548152906001019060200180831161135057829003601f168201915b5050505050905090565b61137f611b34565b73ffffffffffffffffffffffffffffffffffffffff168273ffffffffffffffffffffffffffffffffffffffff1614156113ed576040517f08c379a00000000000000000000000000000000000000000000000000000000081526004016113e490613880565b60405180910390fd5b80600560006113fa611b34565b73ffffffffffffffffffffffffffffffffffffffff1673ffffffffffffffffffffffffffffffffffffffff16815260200190815260200160002060008473ffffffffffffffffffffffffffffffffffffffff1673ffffffffffffffffffffffffffffffffffffffff16815260200190815260200160002060006101000a81548160ff0219169083151502179055508173ffffffffffffffffffffffffffffffffffffffff166114a7611b34565b73ffffffffffffffffffffffffffffffffffffffff167f17307eab39ab6107e8899845ad3d59bd9653f200f220920489ca2b5937696c31836040516114ec9190613783565b60405180910390a35050565b61205381565b61150f611509611b34565b83611bf5565b61154e576040517f08c379a000000000000000000000000000000000000000000000000000000000815260040161154590613a80565b60405180910390fd5b61155a84848484611f4d565b50505050565b6000600e600083815260200190815260200160002060009054906101000a900460ff169050919050565b606061159582611ac8565b6115d4576040517f08c379a00000000000000000000000000000000000000000000000000000000081526004016115cb906139e0565b60405180910390fd5b60006115de611fa9565b905060008151116115fe5760405180602001604052806000815250611629565b8061160884611fc0565b6040516020016116199291906136f8565b6040516020818303038152906040525b915050919050565b600d5481565b604051806060016040528060408152602001613f806040913981565b600c5481565b6000600560008473ffffffffffffffffffffffffffffffffffffffff1673ffffffffffffffffffffffffffffffffffffffff16815260200190815260200160002060008373ffffffffffffffffffffffffffffffffffffffff1673ffffffffffffffffffffffffffffffffffffffff16815260200190815260200160002060009054906101000a900460ff16905092915050565b6116f5611b34565b73ffffffffffffffffffffffffffffffffffffffff1661171361101c565b73ffffffffffffffffffffffffffffffffffffffff1614611769576040517f08c379a0000000000000000000000000000000000000000000000000000000008152600401611760906139a0565b60405180910390fd5b600073ffffffffffffffffffffffffffffffffffffffff168173ffffffffffffffffffffffffffffffffffffffff1614156117d9576040517f08c379a00000000000000000000000000000000000000000000000000000000081526004016117d090613800565b60405180910390fd5b8073ffffffffffffffffffffffffffffffffffffffff16600a60009054906101000a900473ffffffffffffffffffffffffffffffffffffffff1673ffffffffffffffffffffffffffffffffffffffff167f8be0079c531659141344cd1fd0a4f28419497f9722a3daafe3b4186f6b6457e060405160405180910390a380600a60006101000a81548173ffffffffffffffffffffffffffffffffffffffff021916908373ffffffffffffffffffffffffffffffffffffffff16021790555050565b600063604a30704210156118e2576040517f08c379a00000000000000000000000000000000000000000000000000000000081526004016118d990613ae0565b60405180910390fd5b6120536118ed6109d0565b1061192d576040517f08c379a000000000000000000000000000000000000000000000000000000000815260040161192490613a20565b60405180910390fd5b60006119376109d0565b905061204e81106119545768056bc75e2d631000009150506119e3565b611ecd811061196e57674563918244f400009150506119e3565b611c84811061198857672f2f39fc6c5400009150506119e3565b61151881106119a2576718fae27693b400009150506119e3565b610d4881106119bc57670de0b6b3a76400009150506119e3565b6105dc81106119d657670853a0d2313c00009150506119e3565b6702c68af0bb1400009150505b90565b60007f80ac58cd000000000000000000000000000000000000000000000000000000007bffffffffffffffffffffffffffffffffffffffffffffffffffffffff1916827bffffffffffffffffffffffffffffffffffffffffffffffffffffffff19161480611ab157507f5b5e139f000000000000000000000000000000000000000000000000000000007bffffffffffffffffffffffffffffffffffffffffffffffffffffffff1916827bffffffffffffffffffffffffffffffffffffffffffffffffffffffff1916145b80611ac15750611ac08261216d565b5b9050919050565b60008073ffffffffffffffffffffffffffffffffffffffff166002600084815260200190815260200160002060009054906101000a900473ffffffffffffffffffffffffffffffffffffffff1673ffffffffffffffffffffffffffffffffffffffff1614159050919050565b600033905090565b816004600083815260200190815260200160002060006101000a81548173ffffffffffffffffffffffffffffffffffffffff021916908373ffffffffffffffffffffffffffffffffffffffff160217905550808273ffffffffffffffffffffffffffffffffffffffff16611baf83610c7a565b73ffffffffffffffffffffffffffffffffffffffff167f8c5be1e5ebec7d5bd14f71427d1e84f3dd0314c0f7b2291e5b200ac8c7c3b92560405160405180910390a45050565b6000611c0082611ac8565b611c3f576040517f08c379a0000000000000000000000000000000000000000000000000000000008152600401611c36906138c0565b60405180910390fd5b6000611c4a83610c7a565b90508073ffffffffffffffffffffffffffffffffffffffff168473ffffffffffffffffffffffffffffffffffffffff161480611cb957508373ffffffffffffffffffffffffffffffffffffffff16611ca184610833565b73ffffffffffffffffffffffffffffffffffffffff16145b80611cca5750611cc98185611659565b5b91505092915050565b8273ffffffffffffffffffffffffffffffffffffffff16611cf382610c7a565b73ffffffffffffffffffffffffffffffffffffffff1614611d49576040517f08c379a0000000000000000000000000000000000000000000000000000000008152600401611d40906139c0565b60405180910390fd5b600073ffffffffffffffffffffffffffffffffffffffff168273ffffffffffffffffffffffffffffffffffffffff161415611db9576040517f08c379a0000000000000000000000000000000000000000000000000000000008152600401611db090613860565b60405180910390fd5b611dc48383836121d7565b611dcf600082611b3c565b6001600360008573ffffffffffffffffffffffffffffffffffffffff1673ffffffffffffffffffffffffffffffffffffffff1681526020019081526020016000206000828254611e1f9190613cc0565b925050819055506001600360008473ffffffffffffffffffffffffffffffffffffffff1673ffffffffffffffffffffffffffffffffffffffff1681526020019081526020016000206000828254611e769190613bdf565b92505081905550816002600083815260200190815260200160002060006101000a81548173ffffffffffffffffffffffffffffffffffffffff021916908373ffffffffffffffffffffffffffffffffffffffff160217905550808273ffffffffffffffffffffffffffffffffffffffff168473ffffffffffffffffffffffffffffffffffffffff167fddf252ad1be2c89b69c2b068fc378daa952ba7f163c4a11628f55a4df523b3ef60405160405180910390a4505050565b611f498282604051806020016040528060008152506122eb565b5050565b611f58848484611cd3565b611f6484848484612346565b611fa3576040517f08c379a0000000000000000000000000000000000000000000000000000000008152600401611f9a906137e0565b60405180910390fd5b50505050565b606060405180602001604052806000815250905090565b60606000821415612008576040518060400160405280600181526020017f30000000000000000000000000000000000000000000000000000000000000008152509050612168565b600082905060005b6000821461203a57808061202390613ddc565b915050600a826120339190613c35565b9150612010565b60008167ffffffffffffffff81111561207c577f4e487b7100000000000000000000000000000000000000000000000000000000600052604160045260246000fd5b6040519080825280601f01601f1916602001820160405280156120ae5781602001600182028036833780820191505090505b5090505b60008514612161576001826120c79190613cc0565b9150600a856120d69190613e25565b60306120e29190613bdf565b60f81b81838151811061211e577f4e487b7100000000000000000000000000000000000000000000000000000000600052603260045260246000fd5b60200101907effffffffffffffffffffffffffffffffffffffffffffffffffffffffffffff1916908160001a905350600a8561215a9190613c35565b94506120b2565b8093505050505b919050565b60007f01ffc9a7000000000000000000000000000000000000000000000000000000007bffffffffffffffffffffffffffffffffffffffffffffffffffffffff1916827bffffffffffffffffffffffffffffffffffffffffffffffffffffffff1916149050919050565b6121e28383836124dd565b600073ffffffffffffffffffffffffffffffffffffffff168373ffffffffffffffffffffffffffffffffffffffff16141561222557612220816124e2565b612264565b8173ffffffffffffffffffffffffffffffffffffffff168373ffffffffffffffffffffffffffffffffffffffff161461226357612262838261252b565b5b5b600073ffffffffffffffffffffffffffffffffffffffff168273ffffffffffffffffffffffffffffffffffffffff1614156122a7576122a281612698565b6122e6565b8273ffffffffffffffffffffffffffffffffffffffff168273ffffffffffffffffffffffffffffffffffffffff16146122e5576122e482826127db565b5b5b505050565b6122f5838361285a565b6123026000848484612346565b612341576040517f08c379a0000000000000000000000000000000000000000000000000000000008152600401612338906137e0565b60405180910390fd5b505050565b60006123678473ffffffffffffffffffffffffffffffffffffffff16612a28565b156124d0578373ffffffffffffffffffffffffffffffffffffffff1663150b7a02612390611b34565b8786866040518563ffffffff1660e01b81526004016123b29493929190613737565b602060405180830381600087803b1580156123cc57600080fd5b505af19250505080156123fd57506040513d601f19601f820116820180604052508101906123fa9190612cdc565b60015b612480573d806000811461242d576040519150601f19603f3d011682016040523d82523d6000602084013e612432565b606091505b50600081511415612478576040517f08c379a000000000000000000000000000000000000000000000000000000000815260040161246f906137e0565b60405180910390fd5b805181602001fd5b63150b7a0260e01b7bffffffffffffffffffffffffffffffffffffffffffffffffffffffff1916817bffffffffffffffffffffffffffffffffffffffffffffffffffffffff1916149150506124d5565b600190505b949350505050565b505050565b6008805490506009600083815260200190815260200160002081905550600881908060018154018082558091505060019003906000526020600020016000909190919091505550565b6000600161253884610d2c565b6125429190613cc0565b9050600060076000848152602001908152602001600020549050818114612627576000600660008673ffffffffffffffffffffffffffffffffffffffff1673ffffffffffffffffffffffffffffffffffffffff168152602001908152602001600020600084815260200190815260200160002054905080600660008773ffffffffffffffffffffffffffffffffffffffff1673ffffffffffffffffffffffffffffffffffffffff168152602001908152602001600020600084815260200190815260200160002081905550816007600083815260200190815260200160002081905550505b6007600084815260200190815260200160002060009055600660008573ffffffffffffffffffffffffffffffffffffffff1673ffffffffffffffffffffffffffffffffffffffff16815260200190815260200160002060008381526020019081526020016000206000905550505050565b600060016008805490506126ac9190613cc0565b9050600060096000848152602001908152602001600020549050600060088381548110612702577f4e487b7100000000000000000000000000000000000000000000000000000000600052603260045260246000fd5b90600052602060002001549050806008838154811061274a577f4e487b7100000000000000000000000000000000000000000000000000000000600052603260045260246000fd5b9060005260206000200181905550816009600083815260200190815260200160002081905550600960008581526020019081526020016000206000905560088054806127bf577f4e487b7100000000000000000000000000000000000000000000000000000000600052603160045260246000fd5b6001900381819060005260206000200160009055905550505050565b60006127e683610d2c565b905081600660008573ffffffffffffffffffffffffffffffffffffffff1673ffffffffffffffffffffffffffffffffffffffff168152602001908152602001600020600083815260200190815260200160002081905550806007600084815260200190815260200160002081905550505050565b600073ffffffffffffffffffffffffffffffffffffffff168273ffffffffffffffffffffffffffffffffffffffff1614156128ca576040517f08c379a00000000000000000000000000000000000000000000000000000000081526004016128c190613960565b60405180910390fd5b6128d381611ac8565b15612913576040517f08c379a000000000000000000000000000000000000000000000000000000000815260040161290a90613820565b60405180910390fd5b61291f600083836121d7565b6001600360008473ffffffffffffffffffffffffffffffffffffffff1673ffffffffffffffffffffffffffffffffffffffff168152602001908152602001600020600082825461296f9190613bdf565b92505081905550816002600083815260200190815260200160002060006101000a81548173ffffffffffffffffffffffffffffffffffffffff021916908373ffffffffffffffffffffffffffffffffffffffff160217905550808273ffffffffffffffffffffffffffffffffffffffff16600073ffffffffffffffffffffffffffffffffffffffff167fddf252ad1be2c89b69c2b068fc378daa952ba7f163c4a11628f55a4df523b3ef60405160405180910390a45050565b600080823b905060008111915050919050565b6000612a4e612a4984613b6c565b613b3b565b905082815260208101848484011115612a6657600080fd5b612a71848285613d68565b509392505050565b600081359050612a8881613f23565b92915050565b600081359050612a9d81613f3a565b92915050565b600081359050612ab281613f51565b92915050565b600081519050612ac781613f51565b92915050565b600082601f830112612ade57600080fd5b8135612aee848260208601612a3b565b91505092915050565b600081359050612b0681613f68565b92915050565b600060208284031215612b1e57600080fd5b6000612b2c84828501612a79565b91505092915050565b60008060408385031215612b4857600080fd5b6000612b5685828601612a79565b9250506020612b6785828601612a79565b9150509250929050565b600080600060608486031215612b8657600080fd5b6000612b9486828701612a79565b9350506020612ba586828701612a79565b9250506040612bb686828701612af7565b9150509250925092565b60008060008060808587031215612bd657600080fd5b6000612be487828801612a79565b9450506020612bf587828801612a79565b9350506040612c0687828801612af7565b925050606085013567ffffffffffffffff811115612c2357600080fd5b612c2f87828801612acd565b91505092959194509250565b60008060408385031215612c4e57600080fd5b6000612c5c85828601612a79565b9250506020612c6d85828601612a8e565b9150509250929050565b60008060408385031215612c8a57600080fd5b6000612c9885828601612a79565b9250506020612ca985828601612af7565b9150509250929050565b600060208284031215612cc557600080fd5b6000612cd384828501612aa3565b91505092915050565b600060208284031215612cee57600080fd5b6000612cfc84828501612ab8565b91505092915050565b600060208284031215612d1757600080fd5b6000612d2584828501612af7565b91505092915050565b612d3781613cf4565b82525050565b612d4681613d06565b82525050565b6000612d5782613b9c565b612d618185613bb2565b9350612d71818560208601613d77565b612d7a81613f12565b840191505092915050565b6000612d9082613ba7565b612d9a8185613bc3565b9350612daa818560208601613d77565b612db381613f12565b840191505092915050565b6000612dc982613ba7565b612dd38185613bd4565b9350612de3818560208601613d77565b80840191505092915050565b6000612dfc602b83613bc3565b91507f455243373231456e756d657261626c653a206f776e657220696e646578206f7560008301527f74206f6620626f756e64730000000000000000000000000000000000000000006020830152604082019050919050565b6000612e62603283613bc3565b91507f4552433732313a207472616e7366657220746f206e6f6e20455243373231526560008301527f63656976657220696d706c656d656e74657200000000000000000000000000006020830152604082019050919050565b6000612ec8602683613bc3565b91507f4f776e61626c653a206e6577206f776e657220697320746865207a65726f206160008301527f64647265737300000000000000000000000000000000000000000000000000006020830152604082019050919050565b6000612f2e601c83613bc3565b91507f4552433732313a20746f6b656e20616c7265616479206d696e746564000000006000830152602082019050919050565b6000612f6e601683613bc3565b91507f45786365656473204d41585f4e46545f535550504c59000000000000000000006000830152602082019050919050565b6000612fae602483613bc3565b91507f4552433732313a207472616e7366657220746f20746865207a65726f2061646460008301527f72657373000000000000000000000000000000000000000000000000000000006020830152604082019050919050565b6000613014601983613bc3565b91507f4552433732313a20617070726f766520746f2063616c6c6572000000000000006000830152602082019050919050565b6000613054601f83613bc3565b91507f45746865722076616c75652073656e74206973206e6f7420636f7272656374006000830152602082019050919050565b6000613094602c83613bc3565b91507f4552433732313a206f70657261746f7220717565727920666f72206e6f6e657860008301527f697374656e7420746f6b656e00000000000000000000000000000000000000006020830152604082019050919050565b60006130fa601d83613bc3565b91507f5374617274696e6720696e64657820697320616c7265616479207365740000006000830152602082019050919050565b600061313a603883613bc3565b91507f4552433732313a20617070726f76652063616c6c6572206973206e6f74206f7760008301527f6e6572206e6f7220617070726f76656420666f7220616c6c00000000000000006020830152604082019050919050565b60006131a0602a83613bc3565b91507f4552433732313a2062616c616e636520717565727920666f7220746865207a6560008301527f726f2061646472657373000000000000000000000000000000000000000000006020830152604082019050919050565b6000613206602983613bc3565b91507f4552433732313a206f776e657220717565727920666f72206e6f6e657869737460008301527f656e7420746f6b656e00000000000000000000000000000000000000000000006020830152604082019050919050565b600061326c602083613bc3565b91507f4552433732313a206d696e7420746f20746865207a65726f20616464726573736000830152602082019050919050565b60006132ac602c83613bc3565b91507f4552433732313a20617070726f76656420717565727920666f72206e6f6e657860008301527f697374656e7420746f6b656e00000000000000000000000000000000000000006020830152604082019050919050565b6000613312602083613bc3565b91507f4f776e61626c653a2063616c6c6572206973206e6f7420746865206f776e65726000830152602082019050919050565b6000613352602983613bc3565b91507f4552433732313a207472616e73666572206f6620746f6b656e2074686174206960008301527f73206e6f74206f776e00000000000000000000000000000000000000000000006020830152604082019050919050565b60006133b8602f83613bc3565b91507f4552433732314d657461646174613a2055524920717565727920666f72206e6f60008301527f6e6578697374656e7420746f6b656e00000000000000000000000000000000006020830152604082019050919050565b600061341e602183613bc3565b91507f4552433732313a20617070726f76616c20746f2063757272656e74206f776e6560008301527f72000000000000000000000000000000000000000000000000000000000000006020830152604082019050919050565b6000613484601683613bc3565b91507f53616c652068617320616c726561647920656e646564000000000000000000006000830152602082019050919050565b60006134c4601883613bc3565b91507f6e756d6265724f664e6674732063616e6e6f74206265203000000000000000006000830152602082019050919050565b6000613504602083613bc3565b91507f5374617274696e6720696e64657820626c6f636b206d757374206265207365746000830152602082019050919050565b6000613544603183613bc3565b91507f4552433732313a207472616e736665722063616c6c6572206973206e6f74206f60008301527f776e6572206e6f7220617070726f7665640000000000000000000000000000006020830152604082019050919050565b60006135aa602883613bc3565b91507f596f75206d6179206e6f7420627579206d6f7265207468616e2035204e46547360008301527f206174206f6e63650000000000000000000000000000000000000000000000006020830152604082019050919050565b6000613610602c83613bc3565b91507f455243373231456e756d657261626c653a20676c6f62616c20696e646578206f60008301527f7574206f6620626f756e647300000000000000000000000000000000000000006020830152604082019050919050565b6000613676601483613bc3565b91507f53616c6520686173206e6f7420737461727465640000000000000000000000006000830152602082019050919050565b60006136b6601f83613bc3565b91507f5265656e7472616e637947756172643a207265656e7472616e742063616c6c006000830152602082019050919050565b6136f281613d5e565b82525050565b60006137048285612dbe565b91506137108284612dbe565b91508190509392505050565b60006020820190506137316000830184612d2e565b92915050565b600060808201905061374c6000830187612d2e565b6137596020830186612d2e565b61376660408301856136e9565b81810360608301526137788184612d4c565b905095945050505050565b60006020820190506137986000830184612d3d565b92915050565b600060208201905081810360008301526137b88184612d85565b905092915050565b600060208201905081810360008301526137d981612def565b9050919050565b600060208201905081810360008301526137f981612e55565b9050919050565b6000602082019050818103600083015261381981612ebb565b9050919050565b6000602082019050818103600083015261383981612f21565b9050919050565b6000602082019050818103600083015261385981612f61565b9050919050565b6000602082019050818103600083015261387981612fa1565b9050919050565b6000602082019050818103600083015261389981613007565b9050919050565b600060208201905081810360008301526138b981613047565b9050919050565b600060208201905081810360008301526138d981613087565b9050919050565b600060208201905081810360008301526138f9816130ed565b9050919050565b600060208201905081810360008301526139198161312d565b9050919050565b6000602082019050818103600083015261393981613193565b9050919050565b60006020820190508181036000830152613959816131f9565b9050919050565b600060208201905081810360008301526139798161325f565b9050919050565b600060208201905081810360008301526139998161329f565b9050919050565b600060208201905081810360008301526139b981613305565b9050919050565b600060208201905081810360008301526139d981613345565b9050919050565b600060208201905081810360008301526139f9816133ab565b9050919050565b60006020820190508181036000830152613a1981613411565b9050919050565b60006020820190508181036000830152613a3981613477565b9050919050565b60006020820190508181036000830152613a59816134b7565b9050919050565b60006020820190508181036000830152613a79816134f7565b9050919050565b60006020820190508181036000830152613a9981613537565b9050919050565b60006020820190508181036000830152613ab98161359d565b9050919050565b60006020820190508181036000830152613ad981613603565b9050919050565b60006020820190508181036000830152613af981613669565b9050919050565b60006020820190508181036000830152613b19816136a9565b9050919050565b6000602082019050613b3560008301846136e9565b92915050565b6000604051905081810181811067ffffffffffffffff82111715613b6257613b61613ee3565b5b8060405250919050565b600067ffffffffffffffff821115613b8757613b86613ee3565b5b601f19601f8301169050602081019050919050565b600081519050919050565b600081519050919050565b600082825260208201905092915050565b600082825260208201905092915050565b600081905092915050565b6000613bea82613d5e565b9150613bf583613d5e565b9250827fffffffffffffffffffffffffffffffffffffffffffffffffffffffffffffffff03821115613c2a57613c29613e56565b5b828201905092915050565b6000613c4082613d5e565b9150613c4b83613d5e565b925082613c5b57613c5a613e85565b5b828204905092915050565b6000613c7182613d5e565b9150613c7c83613d5e565b9250817fffffffffffffffffffffffffffffffffffffffffffffffffffffffffffffffff0483118215151615613cb557613cb4613e56565b5b828202905092915050565b6000613ccb82613d5e565b9150613cd683613d5e565b925082821015613ce957613ce8613e56565b5b828203905092915050565b6000613cff82613d3e565b9050919050565b60008115159050919050565b60007fffffffff0000000000000000000000000000000000000000000000000000000082169050919050565b600073ffffffffffffffffffffffffffffffffffffffff82169050919050565b6000819050919050565b82818337600083830152505050565b60005b83811015613d95578082015181840152602081019050613d7a565b83811115613da4576000848401525b50505050565b60006002820490506001821680613dc257607f821691505b60208210811415613dd657613dd5613eb4565b5b50919050565b6000613de782613d5e565b91507fffffffffffffffffffffffffffffffffffffffffffffffffffffffffffffffff821415613e1a57613e19613e56565b5b600182019050919050565b6000613e3082613d5e565b9150613e3b83613d5e565b925082613e4b57613e4a613e85565b5b828206905092915050565b7f4e487b7100000000000000000000000000000000000000000000000000000000600052601160045260246000fd5b7f4e487b7100000000000000000000000000000000000000000000000000000000600052601260045260246000fd5b7f4e487b7100000000000000000000000000000000000000000000000000000000600052602260045260246000fd5b7f4e487b7100000000000000000000000000000000000000000000000000000000600052604160045260246000fd5b6000601f19601f8301169050919050565b613f2c81613cf4565b8114613f3757600080fd5b50565b613f4381613d06565b8114613f4e57600080fd5b50565b613f5a81613d12565b8114613f6557600080fd5b50565b613f7181613d5e565b8114613f7c57600080fd5b5056fe35316161623961333061363466306231663833323563636661376538306362636332306239646261623462346536373635633365353137386535303764323130a2646970667358221220670dbe4a017454349159dd2fd2e337fb521f46e2bab0ea2f127f568ed0432bf064736f6c63430008000033",
  "linkReferences": {},
  "deployedLinkReferences": {}
}